{
  "contractName": "NoFilter",
  "abi": [
    {
      "inputs": [],
      "payable": false,
      "stateMutability": "nonpayable",
      "type": "constructor"
    },
    {
      "anonymous": false,
      "inputs": [
        {
          "indexed": true,
          "name": "author",
          "type": "address"
        },
        {
          "indexed": true,
          "name": "id",
          "type": "uint256"
        },
        {
          "indexed": false,
          "name": "tags",
          "type": "bytes"
        },
        {
          "indexed": false,
          "name": "postTimestamp",
          "type": "uint256"
        },
        {
          "indexed": false,
          "name": "title",
          "type": "bytes"
        },
        {
          "indexed": false,
          "name": "text",
          "type": "bytes"
        }
      ],
      "name": "PostContent",
      "type": "event"
    },
    {
      "anonymous": false,
      "inputs": [
        {
          "indexed": true,
          "name": "commenter",
          "type": "address"
        },
        {
          "indexed": true,
          "name": "postId",
          "type": "uint256"
        },
        {
          "indexed": false,
          "name": "comment",
          "type": "bytes"
        },
        {
          "indexed": false,
          "name": "parentComment",
          "type": "uint256"
        },
        {
          "indexed": false,
          "name": "commentTimestamp",
          "type": "uint256"
        },
        {
          "indexed": false,
          "name": "commentId",
          "type": "uint256"
        }
      ],
      "name": "CommentCreated",
      "type": "event"
    },
    {
      "anonymous": false,
      "inputs": [
        {
          "indexed": true,
          "name": "donator",
          "type": "address"
        },
        {
          "indexed": true,
          "name": "donationValue",
          "type": "uint256"
        },
        {
          "indexed": false,
          "name": "donationTimestamp",
          "type": "uint256"
        },
        {
          "indexed": false,
          "name": "postid",
          "type": "uint256"
        }
      ],
      "name": "DonationMade",
      "type": "event"
    },
    {
      "constant": false,
      "inputs": [
        {
          "name": "title",
          "type": "bytes"
        },
        {
          "name": "text",
          "type": "bytes"
        },
        {
          "name": "tags",
          "type": "bytes"
        }
      ],
      "name": "CreatePost",
      "outputs": [],
      "payable": false,
      "stateMutability": "nonpayable",
      "type": "function"
    },
    {
      "constant": true,
      "inputs": [
        {
          "name": "postId",
          "type": "uint256"
        }
      ],
      "name": "getOwner",
      "outputs": [
        {
          "name": "",
          "type": "address"
        }
      ],
      "payable": false,
      "stateMutability": "view",
      "type": "function"
    },
    {
      "constant": false,
      "inputs": [
        {
          "name": "postId",
          "type": "uint256"
        }
      ],
      "name": "UpvotePost",
      "outputs": [],
      "payable": false,
      "stateMutability": "nonpayable",
      "type": "function"
    },
    {
      "constant": false,
      "inputs": [
        {
          "name": "postId",
          "type": "uint256"
        }
      ],
      "name": "DownvotePost",
      "outputs": [],
      "payable": false,
      "stateMutability": "nonpayable",
      "type": "function"
    },
    {
      "constant": true,
      "inputs": [
        {
          "name": "postId",
          "type": "uint256"
        }
      ],
      "name": "getUpVotes",
      "outputs": [
        {
          "name": "",
          "type": "uint256"
        }
      ],
      "payable": false,
      "stateMutability": "view",
      "type": "function"
    },
    {
      "constant": true,
      "inputs": [
        {
          "name": "postId",
          "type": "uint256"
        }
      ],
      "name": "getDownVotes",
      "outputs": [
        {
          "name": "",
          "type": "uint256"
        }
      ],
      "payable": false,
      "stateMutability": "view",
      "type": "function"
    },
    {
      "constant": true,
      "inputs": [
        {
          "name": "postId",
          "type": "uint256"
        },
        {
          "name": "voter",
          "type": "address"
        }
      ],
      "name": "getVoterData",
      "outputs": [
        {
          "name": "",
          "type": "uint256"
        }
      ],
      "payable": false,
      "stateMutability": "view",
      "type": "function"
    },
    {
      "constant": false,
      "inputs": [
        {
          "name": "text",
          "type": "bytes"
        },
        {
          "name": "postId",
          "type": "uint256"
        },
        {
          "name": "parentComment",
          "type": "uint256"
        }
      ],
      "name": "PostComment",
      "outputs": [],
      "payable": false,
      "stateMutability": "nonpayable",
      "type": "function"
    },
    {
      "constant": false,
      "inputs": [
        {
          "name": "postId",
          "type": "uint256"
        },
        {
          "name": "commendId",
          "type": "uint256"
        }
      ],
      "name": "UpvoteComment",
      "outputs": [],
      "payable": false,
      "stateMutability": "nonpayable",
      "type": "function"
    },
    {
      "constant": false,
      "inputs": [
        {
          "name": "postId",
          "type": "uint256"
        },
        {
          "name": "commendId",
          "type": "uint256"
        }
      ],
      "name": "DownvoteComment",
      "outputs": [],
      "payable": false,
      "stateMutability": "nonpayable",
      "type": "function"
    },
    {
      "constant": true,
      "inputs": [
        {
          "name": "postId",
          "type": "uint256"
        },
        {
          "name": "commendId",
          "type": "uint256"
        }
      ],
      "name": "getCommentUpVotes",
      "outputs": [
        {
          "name": "",
          "type": "uint256"
        }
      ],
      "payable": false,
      "stateMutability": "view",
      "type": "function"
    },
    {
      "constant": true,
      "inputs": [
        {
          "name": "postId",
          "type": "uint256"
        },
        {
          "name": "commendId",
          "type": "uint256"
        }
      ],
      "name": "getCommentDownVotes",
      "outputs": [
        {
          "name": "",
          "type": "uint256"
        }
      ],
      "payable": false,
      "stateMutability": "view",
      "type": "function"
    },
    {
      "constant": true,
      "inputs": [
        {
          "name": "postId",
          "type": "uint256"
        },
        {
          "name": "commendId",
          "type": "uint256"
        },
        {
          "name": "commenter",
          "type": "address"
        }
      ],
      "name": "getCommentVoterData",
      "outputs": [
        {
          "name": "",
          "type": "uint256"
        }
      ],
      "payable": false,
      "stateMutability": "view",
      "type": "function"
    },
    {
      "constant": true,
      "inputs": [],
      "name": "getPostCounter",
      "outputs": [
        {
          "name": "",
          "type": "uint256"
        }
      ],
      "payable": false,
      "stateMutability": "view",
      "type": "function"
    },
    {
      "constant": false,
      "inputs": [
        {
          "name": "postId",
          "type": "uint256"
        }
      ],
      "name": "makeDonation",
      "outputs": [],
      "payable": true,
      "stateMutability": "payable",
      "type": "function"
    },
    {
      "constant": true,
      "inputs": [
        {
          "name": "postId",
          "type": "uint256"
        }
      ],
      "name": "getPostDonations",
      "outputs": [
        {
          "name": "",
          "type": "uint256"
        }
      ],
      "payable": false,
      "stateMutability": "view",
      "type": "function"
    },
    {
      "constant": true,
      "inputs": [
        {
          "name": "user",
          "type": "address"
        }
      ],
      "name": "getBalance",
      "outputs": [
        {
          "name": "",
          "type": "uint256"
        }
      ],
      "payable": false,
      "stateMutability": "view",
      "type": "function"
    }
  ],
  "bytecode": "0x608060405234801561001057600080fd5b5060008055611376806100246000396000f3006080604052600436106100f05763ffffffff7c01000000000000000000000000000000000000000000000000000000006000350416630cbe957e81146100f55780630d898f48146101cc5780630dad041e146101f657806335c8d82b1461020e57806349ad53ee146102325780634e595e3a14610259578063582e04881461027457806368b6883e146102895780637bc43f56146102eb5780637dc1aae4146103065780637e6ab91614610321578063a0a5c2b614610339578063a4245e6714610354578063b219f9161461036c578063c41a360a14610377578063e6e55333146103ab578063f8b2cb4f146103c3575b600080fd5b34801561010157600080fd5b506040805160206004803580820135601f81018490048402850184019095528484526101ca94369492936024939284019190819084018382808284375050604080516020601f89358b018035918201839004830284018301909452808352979a99988101979196509182019450925082915084018382808284375050604080516020601f89358b018035918201839004830284018301909452808352979a9998810197919650918201945092508291508401838280828437509497506103e49650505050505050565b005b3480156101d857600080fd5b506101e46004356106c9565b60408051918252519081900360200190f35b34801561020257600080fd5b506101ca6004356106db565b34801561021a57600080fd5b506101e4600435600160a060020a036024351661082d565b34801561023e57600080fd5b506101e4600435602435600160a060020a0360443516610852565b34801561026557600080fd5b506101ca600435602435610881565b34801561028057600080fd5b506101e4610ad8565b34801561029557600080fd5b506040805160206004803580820135601f81018490048402850184019095528484526101ca943694929360249392840191908190840183828082843750949750508435955050506020909201359150610ade9050565b3480156102f757600080fd5b506101ca600435602435610d63565b34801561031257600080fd5b506101e4600435602435610fb9565b34801561032d57600080fd5b506101e4600435610fd6565b34801561034557600080fd5b506101e4600435602435610fe8565b34801561036057600080fd5b506101e4600435611005565b6101ca600435611017565b34801561038357600080fd5b5061038f60043561117d565b60408051600160a060020a039092168252519081900360200190f35b3480156103b757600080fd5b506101ca600435611198565b3480156103cf57600080fd5b506101e4600160a060020a03600435166112ef565b6000808451111515610440576040805160e560020a62461bcd02815260206004820152600d60248201527f496e76616c6964207469746c6500000000000000000000000000000000000000604482015290519081900360640190fd5b8251600010610499576040805160e560020a62461bcd02815260206004820152600c60248201527f496e76616c696420746578740000000000000000000000000000000000000000604482015290519081900360640190fd5b81516000106104f2576040805160e560020a62461bcd02815260206004820152600c60248201527f496e76616c696420746167730000000000000000000000000000000000000000604482015290519081900360640190fd5b5060008054808252600160208181526040808520805473ffffffffffffffffffffffffffffffffffffffff191633908117909155600283528186208490558086526004835281862085875283528186209390935580514281840181905260808083528851908301528751959687967fdc220f0be468e8336935034fc4829e5d0e772978345b486fa47d2d09bd32cc11958a9593948d948d949193849391840192606085019260a0860192908b01918190849084905b838110156105bf5781810151838201526020016105a7565b50505050905090810190601f1680156105ec5780820380516001836020036101000a031916815260200191505b50848103835286518152865160209182019188019080838360005b8381101561061f578181015183820152602001610607565b50505050905090810190601f16801561064c5780820380516001836020036101000a031916815260200191505b50848103825285518152855160209182019187019080838360005b8381101561067f578181015183820152602001610667565b50505050905090810190601f1680156106ac5780820380516001836020036101000a031916815260200191505b5097505050505050505060405180910390a3600101600055505050565b60009081526003602052604090205490565b600080821015610723576040805160e560020a62461bcd02815260206004820152601d602482015260008051602061130b833981519152604482015290519081900360640190fd5b600054821061076a576040805160e560020a62461bcd028152602060048201819052602482015260008051602061132b833981519152604482015290519081900360640190fd5b5033600090815260046020908152604080832084845290915290205460028114156107df576040805160e560020a62461bcd02815260206004820152601560248201527f646f776e766f746520616c726561647920646f6e650000000000000000000000604482015290519081900360640190fd5b80600114156107ff57600082815260026020526040902080546000190190555b5033600090815260046020908152604080832093835292815282822060029055600390522080546001019055565b600160a060020a03166000908152600460209081526040808320938352929052205490565b600160a060020a0316600090815260096020908152604080832094835293815283822092825291909152205490565b60008210156108c8576040805160e560020a62461bcd02815260206004820152601d602482015260008051602061130b833981519152604482015290519081900360640190fd5b600054821061090f576040805160e560020a62461bcd028152602060048201819052602482015260008051602061132b833981519152604482015290519081900360640190fd5b6000811015610968576040805160e560020a62461bcd02815260206004820152601760248201527f636f6d6d656e74206964206973206e6f742076616c6964000000000000000000604482015290519081900360640190fd5b6000828152600560205260409020548111156109ce576040805160e560020a62461bcd02815260206004820152601a60248201527f636f6d6d656e74206964206973206e6f6e206578697374656e74000000000000604482015290519081900360640190fd5b336000908152600960209081526040808320858452825280832084845290915290205460011415610a49576040805160e560020a62461bcd02815260206004820152601360248201527f5570766f746520616c726561647920646f6e6500000000000000000000000000604482015290519081900360640190fd5b336000908152600960209081526040808320858452825280832084845290915290205460021415610a96576000828152600860209081526040808320848452909152902080546000190190555b33600090815260096020908152604080832085845282528083208484528252808320600190819055948352600782528083209383529290522080549091019055565b60005490565b600080831015610b38576040805160e560020a62461bcd02815260206004820152601f60248201527f636f6d6d656e74206973206e6f7420666f7220612076616c696420706f737400604482015290519081900360640190fd5b6000548310610bb7576040805160e560020a62461bcd02815260206004820152602260248201527f636f6d6d656e7420697320666f722061206e6f6e206578697374656e7420706f60448201527f7374000000000000000000000000000000000000000000000000000000000000606482015290519081900360840190fd5b8351600010610c10576040805160e560020a62461bcd02815260206004820152601860248201527f636f6d6d656e7420636f6d6d656e7420697320656d7074790000000000000000604482015290519081900360640190fd5b600560008481526020019081526020016000205490508233600160a060020a03167f5c7252053e11b0d1b89164a47c163c5f5027f50b79dc32cc22920d6bc21e189a868542866040518080602001858152602001848152602001838152602001828103825286818151815260200191508051906020019080838360005b83811015610ca5578181015183820152602001610c8d565b50505050905090810190601f168015610cd25780820380516001836020036101000a031916815260200191505b509550505050505060405180910390a360008381526006602090815260408083208484528252808320805473ffffffffffffffffffffffffffffffffffffffff19163390811790915586845260078352818420858552835281842060019081905590845260098352818420878552835281842085855283528184208190559583526005909152902092019091555050565b6000821015610daa576040805160e560020a62461bcd02815260206004820152601d602482015260008051602061130b833981519152604482015290519081900360640190fd5b6000548210610df1576040805160e560020a62461bcd028152602060048201819052602482015260008051602061132b833981519152604482015290519081900360640190fd5b6000811015610e4a576040805160e560020a62461bcd02815260206004820152601760248201527f636f6d6d656e74206964206973206e6f742076616c6964000000000000000000604482015290519081900360640190fd5b600082815260056020526040902054811115610eb0576040805160e560020a62461bcd02815260206004820152601a60248201527f636f6d6d656e74206964206973206e6f6e206578697374656e74000000000000604482015290519081900360640190fd5b336000908152600960209081526040808320858452825280832084845290915290205460021415610f2b576040805160e560020a62461bcd02815260206004820152601360248201527f5570766f746520616c726561647920646f6e6500000000000000000000000000604482015290519081900360640190fd5b336000908152600960209081526040808320858452825280832084845290915290205460011415610f78576000828152600760209081526040808320848452909152902080546000190190555b336000908152600960209081526040808320858452825280832084845282528083206002905593825260088152838220928252919091522080546001019055565b600091825260076020908152604080842092845291905290205490565b60009081526002602052604090205490565b600091825260086020908152604080842092845291905290205490565b6000908152600b602052604090205490565b60008082101561105f576040805160e560020a62461bcd02815260206004820152601d602482015260008051602061130b833981519152604482015290519081900360640190fd5b60005482106110a6576040805160e560020a62461bcd028152602060048201819052602482015260008051602061132b833981519152604482015290519081900360640190fd5b600034116110fe576040805160e560020a62461bcd02815260206004820152601160248201527f6e6f2061747461636865642076616c7565000000000000000000000000000000604482015290519081900360640190fd5b50600081815260016020908152604080832054600160a060020a0316808452600a8352818420805434908101909155858552600b8452938290208054850190558151428152928301859052815190939233927fd7570171f3eec5b5e70a829a2f7b1a40853d0159967de2efe2bf99208b9a560d92918290030190a35050565b600090815260016020526040902054600160a060020a031690565b6000808210156111e0576040805160e560020a62461bcd02815260206004820152601d602482015260008051602061130b833981519152604482015290519081900360640190fd5b6000548210611227576040805160e560020a62461bcd028152602060048201819052602482015260008051602061132b833981519152604482015290519081900360640190fd5b50336000908152600460209081526040808320848452909152902054600181141561129c576040805160e560020a62461bcd02815260206004820152601360248201527f5570766f746520616c726561647920646f6e6500000000000000000000000000604482015290519081900360640190fd5b80600214156112bc57600082815260036020526040902080546000190190555b50336000908152600460209081526040808320938352928152828220600190819055600290915291902080549091019055565b600160a060020a03166000908152600a6020526040902054905600766f746573206973206e6f7420666f7220612076616c696420706f7374000000766f74657320697320666f722061206e6f6e206578697374656e7420706f7374a165627a7a723058207a8056de08818f46a9834d6812d6cdd6a52c1314c92e5ef07867206bb79e39c00029",
  "source": "pragma solidity >=0.4.23;\r\n\r\ncontract NoFilter {\r\n    \r\n    //post related variables\r\n    uint postNumber; // keeps track of posts so that every one is unique\r\n    mapping (uint => address) postOwners; //Keeps track of who owns a specific post\r\n    mapping (uint => uint) upvotes; // keeps track of a posts vote counter\r\n    mapping (uint => uint) downvotes; // keeps track of a posts vote counter\r\n    mapping (address => mapping(uint => uint)) voters; //keeps track of a users voting history, helps to prevent vote spamming from a single account\r\n    \r\n    //comment related variables\r\n    mapping (uint => uint) commentCounter; // keeps track of posts so that every one is unique\r\n    mapping (uint => mapping(uint => address)) commentOwner; //Keeps track of who owns a specific post\r\n    mapping (uint => mapping(uint => uint)) commentUpVotes; // keeps track of a posts vote counter\r\n    mapping (uint => mapping(uint => uint)) commentDownVotes; // keeps track of a posts vote counter\r\n    mapping (address => mapping(uint => mapping(uint => uint))) commentVoters; //keeps track of a users voting history, helps to prevent vote spamming from a single account\r\n    \r\n    //Donation System\r\n    mapping (address => uint) balances;\r\n    mapping (uint => uint) postEarnings;\r\n    \r\n    constructor () public {\r\n        postNumber = 0;\r\n    }\r\n    \r\n    //Invoked when the post has been created, so that the dApp can access the content\r\n    event PostContent (\r\n        address indexed author,\r\n        uint indexed id,\r\n        bytes tags,\r\n        uint postTimestamp, //used to generate private post unique key\r\n        bytes title,\r\n        bytes text\r\n    );\r\n    \r\n    //create a new post, done by storing data in the logs. data can be in any form as long as it is byte data. This means data can be compressed\r\n    function CreatePost(bytes title, bytes text, bytes tags) public {\r\n        \r\n        //check that the data is correct\r\n        require(title.length > 0, \"Invalid title\");\r\n        require(text.length > 0, \"Invalid text\");\r\n        require(tags.length > 0, \"Invalid tags\");\r\n        \r\n        uint postId = postNumber;\r\n        //init the mapping and set the owner as the sender\r\n        postOwners[postId] = msg.sender;\r\n        \r\n        //init votes so that the owner has upvoted by default.\r\n        upvotes[postId] = 1;\r\n        voters[msg.sender][postId] = 1;\r\n        \r\n        //posts are stored in logs, it allows to reduce post invocation cost\r\n        emit PostContent(msg.sender, postId, tags, now, title, text);\r\n        \r\n        postNumber = postId + 1;\r\n    }\r\n    \r\n    //get the owner of a post\r\n    function getOwner(uint postId) public view returns (address) {\r\n        return postOwners[postId];\r\n    }\r\n    \r\n    //upvote a post \r\n    function UpvotePost(uint postId) public {\r\n        require(postId >= 0, \"votes is not for a valid post\");\r\n        require(postId < postNumber, \"votes is for a non existent post\");\r\n        \r\n        uint knownType = voters[msg.sender][postId];\r\n        require(knownType != 1, \"Upvote already done\");\r\n        if (knownType == 2) {\r\n            downvotes[postId] -= 1;\r\n        }\r\n        voters[msg.sender][postId] = 1;\r\n        upvotes[postId] += 1;\r\n    }\r\n    \r\n    //downvote a post \r\n    function DownvotePost(uint postId) public {\r\n        require(postId >= 0, \"votes is not for a valid post\");\r\n        require(postId < postNumber, \"votes is for a non existent post\");\r\n\r\n        uint knownType = voters[msg.sender][postId];\r\n        require(knownType != 2, \"downvote already done\");\r\n        if (knownType == 1) {\r\n            upvotes[postId] -= 1;\r\n        }\r\n        voters[msg.sender][postId] = 2;\r\n        downvotes[postId] += 1;\r\n    }\r\n    \r\n    //get the vote data\r\n    function getUpVotes(uint postId) public view returns (uint) {\r\n        return upvotes[postId];\r\n    }\r\n\r\n    //get the vote data\r\n    function getDownVotes(uint postId) public view returns (uint) {\r\n        return downvotes[postId];\r\n    }\r\n    \r\n    //get the voter data\r\n    function getVoterData(uint postId, address voter) public view returns (uint) {\r\n        return voters[voter][postId];\r\n    }\r\n\r\n    /////////// Comment functionality\r\n\r\n    //stores a log comment on the blockchain when commented\r\n    event CommentCreated (\r\n        address indexed commenter,\r\n        uint indexed postId,\r\n        bytes comment,\r\n        uint parentComment,\r\n\t\tuint commentTimestamp,\r\n\t\tuint commentId\r\n    );\r\n    \r\n    function PostComment(bytes text, uint postId, uint parentComment) public {\r\n        require(postId >= 0, \"comment is not for a valid post\");\r\n        require(postId < postNumber, \"comment is for a non existent post\");\r\n        require(text.length > 0, \"comment comment is empty\");\r\n\t\t\r\n\t\t//update comment related variables\r\n        uint commentId = commentCounter[postId];\r\n\t\t\r\n\t\t//emit to the blockchain\r\n        emit CommentCreated(msg.sender, postId, text, parentComment, now, commentId);\r\n        \r\n\r\n        commentOwner[postId][commentId] = msg.sender;\r\n        \r\n        //deal with upvote data\r\n        commentUpVotes[postId][commentId] = 1;\r\n        commentVoters[msg.sender][postId][commentId] = 1;\r\n        \r\n        //increment counter when done\r\n        commentCounter[postId] = commentId + 1;\r\n    }\r\n    \r\n    //upvote a post \r\n    function UpvoteComment(uint postId, uint commendId) public {\r\n        require(postId >= 0, \"votes is not for a valid post\");\r\n        require(postId < postNumber, \"votes is for a non existent post\");\r\n        \r\n        require(commendId >= 0, \"comment id is not valid\");\r\n        require(commendId <= commentCounter[postId], \"comment id is non existent\");\r\n        require(commentVoters[msg.sender][postId][commendId] != 1, \"Upvote already done\");\r\n\r\n        if (commentVoters[msg.sender][postId][commendId] == 2) {\r\n            commentDownVotes[postId][commendId] -= 1;\r\n        }\r\n\r\n        commentVoters[msg.sender][postId][commendId] = 1;\r\n        commentUpVotes[postId][commendId] += 1;\r\n    }\r\n    \r\n    //downvote a post \r\n    function DownvoteComment(uint postId, uint commendId) public {\r\n        require(postId >= 0, \"votes is not for a valid post\");\r\n        require(postId < postNumber, \"votes is for a non existent post\");\r\n        \r\n        require(commendId >= 0, \"comment id is not valid\");\r\n        require(commendId <= commentCounter[postId], \"comment id is non existent\");\r\n        require(commentVoters[msg.sender][postId][commendId] != 2, \"Upvote already done\");\r\n        \r\n        if (commentVoters[msg.sender][postId][commendId] == 1) {\r\n            commentUpVotes[postId][commendId] -= 1;\r\n        }\r\n\r\n        commentVoters[msg.sender][postId][commendId] = 2;\r\n        commentDownVotes[postId][commendId] += 1;\r\n    }\r\n    \r\n    //get the comment vote data\r\n    function getCommentUpVotes(uint postId, uint commendId) public view returns (uint) {\r\n        return commentUpVotes[postId][commendId];\r\n    }\r\n\r\n    //get the comment vote data\r\n    function getCommentDownVotes(uint postId, uint commendId) public view returns (uint) {\r\n        return commentDownVotes[postId][commendId];\r\n    }\r\n    \r\n    //get the comment voter data\r\n    function getCommentVoterData(uint postId, uint commendId, address commenter) public view returns (uint) {\r\n        return commentVoters[commenter][postId][commendId];\r\n    } \r\n\r\n    //get the total number of posts\r\n    function getPostCounter() public view returns (uint) {\r\n        return postNumber;\r\n    }\r\n    \r\n    //Donation System \r\n    \r\n    //make a donation to a post\r\n    function makeDonation(uint postId) public payable {\r\n        require(postId >= 0, \"votes is not for a valid post\");\r\n        require(postId < postNumber, \"votes is for a non existent post\");\r\n        require(msg.value > 0, \"no attached value\");\r\n        address owner = postOwners[postId];\r\n        balances[owner] += msg.value;\r\n        postEarnings[postId] += msg.value;\r\n        emit DonationMade(msg.sender, msg.value, now, postId);\r\n    }\r\n    \r\n    //Invoked when a donation is made\r\n    event DonationMade (\r\n        address indexed donator,\r\n        uint indexed donationValue,\r\n        uint donationTimestamp,\r\n        uint postid\r\n    );\r\n    \r\n    //get post donations\r\n    function getPostDonations(uint postId) public view returns (uint) {\r\n        return postEarnings[postId];\r\n    }\r\n    \r\n    //get user balance\r\n    function getBalance(address user) public view returns (uint) {\r\n        return balances[user];\r\n    }\r\n}\r\n\r\n\r\n\r\n\r\n\r\n\r\n\r\n\r\n\r\n\r\n\r\n\r\n\r\n\r\n\r\n\r\n\r\n\r\n\r\n\r\n\r\n",
  "sourcePath": "C:\\Users\\Khera\\Documents\\GitHub\\TronDappSteedium\\Solidity\\contracts\\NoFilter.sol",
  "compiler": {
    "name": "solc",
    "version": "0.4.24-develop.2018.8.28+commit.3ba0cdec.mod.Emscripten.clang"
  },
  "schemaVersion": "2.0.1",
  "updatedAt": "2018-12-30T04:08:53.491Z"
}