{
  "contractName": "Treddit",
  "abi": [
    {
      "inputs": [],
      "payable": false,
      "stateMutability": "nonpayable",
      "type": "constructor"
    },
    {
      "anonymous": false,
      "inputs": [
        {
          "indexed": true,
          "name": "author",
          "type": "address"
        },
        {
          "indexed": true,
          "name": "id",
          "type": "uint256"
        },
        {
          "indexed": true,
          "name": "tags",
          "type": "bytes"
        },
        {
          "indexed": false,
          "name": "postTimestamp",
          "type": "uint256"
        },
        {
          "indexed": false,
          "name": "title",
          "type": "bytes"
        },
        {
          "indexed": false,
          "name": "text",
          "type": "bytes"
        }
      ],
      "name": "PostContent",
      "type": "event"
    },
    {
      "anonymous": false,
      "inputs": [
        {
          "indexed": true,
          "name": "commenter",
          "type": "address"
        },
        {
          "indexed": true,
          "name": "postId",
          "type": "uint256"
        },
        {
          "indexed": false,
          "name": "comment",
          "type": "bytes"
        },
        {
          "indexed": false,
          "name": "parentComment",
          "type": "uint256"
        }
      ],
      "name": "CommentCreated",
      "type": "event"
    },
    {
      "constant": false,
      "inputs": [
        {
          "name": "title",
          "type": "bytes"
        },
        {
          "name": "text",
          "type": "bytes"
        },
        {
          "name": "tags",
          "type": "bytes"
        }
      ],
      "name": "CreatePost",
      "outputs": [],
      "payable": false,
      "stateMutability": "nonpayable",
      "type": "function"
    },
    {
      "constant": true,
      "inputs": [
        {
          "name": "postId",
          "type": "uint256"
        }
      ],
      "name": "getOwner",
      "outputs": [
        {
          "name": "",
          "type": "address"
        }
      ],
      "payable": false,
      "stateMutability": "view",
      "type": "function"
    },
    {
      "constant": false,
      "inputs": [
        {
          "name": "postId",
          "type": "uint256"
        },
        {
          "name": "text",
          "type": "bytes"
        },
        {
          "name": "parentComment",
          "type": "uint256"
        }
      ],
      "name": "PostComment",
      "outputs": [],
      "payable": false,
      "stateMutability": "nonpayable",
      "type": "function"
    },
    {
      "constant": false,
      "inputs": [
        {
          "name": "postId",
          "type": "uint256"
        }
      ],
      "name": "UpvotePost",
      "outputs": [],
      "payable": false,
      "stateMutability": "nonpayable",
      "type": "function"
    },
    {
      "constant": false,
      "inputs": [
        {
          "name": "postId",
          "type": "uint256"
        }
      ],
      "name": "DownvotePost",
      "outputs": [],
      "payable": false,
      "stateMutability": "nonpayable",
      "type": "function"
    },
    {
      "constant": true,
      "inputs": [
        {
          "name": "postId",
          "type": "uint256"
        }
      ],
      "name": "getVotes",
      "outputs": [
        {
          "name": "",
          "type": "uint256"
        }
      ],
      "payable": false,
      "stateMutability": "view",
      "type": "function"
    },
    {
      "constant": true,
      "inputs": [
        {
          "name": "postId",
          "type": "uint256"
        },
        {
          "name": "voter",
          "type": "address"
        }
      ],
      "name": "getVoterData",
      "outputs": [
        {
          "name": "",
          "type": "uint256"
        }
      ],
      "payable": false,
      "stateMutability": "view",
      "type": "function"
    },
    {
      "constant": false,
      "inputs": [
        {
          "name": "postId",
          "type": "uint256"
        },
        {
          "name": "commendId",
          "type": "uint256"
        }
      ],
      "name": "UpvoteComment",
      "outputs": [],
      "payable": false,
      "stateMutability": "nonpayable",
      "type": "function"
    },
    {
      "constant": false,
      "inputs": [
        {
          "name": "postId",
          "type": "uint256"
        },
        {
          "name": "commendId",
          "type": "uint256"
        }
      ],
      "name": "DownvoteComment",
      "outputs": [],
      "payable": false,
      "stateMutability": "nonpayable",
      "type": "function"
    },
    {
      "constant": true,
      "inputs": [
        {
          "name": "postId",
          "type": "uint256"
        },
        {
          "name": "commendId",
          "type": "uint256"
        }
      ],
      "name": "getCommentVotes",
      "outputs": [
        {
          "name": "",
          "type": "uint256"
        }
      ],
      "payable": false,
      "stateMutability": "view",
      "type": "function"
    },
    {
      "constant": true,
      "inputs": [
        {
          "name": "postId",
          "type": "uint256"
        },
        {
          "name": "commendId",
          "type": "uint256"
        },
        {
          "name": "commenter",
          "type": "address"
        }
      ],
      "name": "getCommentVoterData",
      "outputs": [
        {
          "name": "",
          "type": "uint256"
        }
      ],
      "payable": false,
      "stateMutability": "view",
      "type": "function"
    }
  ],
  "bytecode": "0x608060405234801561001057600080fd5b50600080819055506118c6806100276000396000f3006080604052600436106100af576000357c0100000000000000000000000000000000000000000000000000000000900463ffffffff1680630cbe957e146100b45780630dad041e146101a957806335c8d82b146101d65780633d11dcb41461023757806346fbae00146102b457806349ad53ee146102ff5780634e595e3a1461036a5780637bc43f56146103a1578063c41a360a146103d8578063e6e5533314610445578063ff98109914610472575b600080fd5b3480156100c057600080fd5b506101a7600480360381019080803590602001908201803590602001908080601f0160208091040260200160405190810160405280939291908181526020018383808284378201915050505050509192919290803590602001908201803590602001908080601f0160208091040260200160405190810160405280939291908181526020018383808284378201915050505050509192919290803590602001908201803590602001908080601f01602080910402602001604051908101604052809392919081815260200183838082843782019150505050505091929192905050506104b3565b005b3480156101b557600080fd5b506101d460048036038101908080359060200190929190505050610881565b005b3480156101e257600080fd5b5061022160048036038101908080359060200190929190803573ffffffffffffffffffffffffffffffffffffffff169060200190929190505050610ab7565b6040518082815260200191505060405180910390f35b34801561024357600080fd5b506102b260048036038101908080359060200190929190803590602001908201803590602001908080601f016020809104026020016040519081016040528093929190818152602001838380828437820191505050505050919291929080359060200190929190505050610b12565b005b3480156102c057600080fd5b506102e96004803603810190808035906020019092919080359060200190929190505050610e92565b6040518082815260200191505060405180910390f35b34801561030b57600080fd5b506103546004803603810190808035906020019092919080359060200190929190803573ffffffffffffffffffffffffffffffffffffffff169060200190929190505050610ec1565b6040518082815260200191505060405180910390f35b34801561037657600080fd5b5061039f6004803603810190808035906020019092919080359060200190929190505050610f2e565b005b3480156103ad57600080fd5b506103d6600480360381019080803590602001909291908035906020019092919050505061129c565b005b3480156103e457600080fd5b506104036004803603810190808035906020019092919050505061160a565b604051808273ffffffffffffffffffffffffffffffffffffffff1673ffffffffffffffffffffffffffffffffffffffff16815260200191505060405180910390f35b34801561045157600080fd5b5061047060048036038101908080359060200190929190505050611647565b005b34801561047e57600080fd5b5061049d6004803603810190808035906020019092919050505061187d565b6040518082815260200191505060405180910390f35b600080845111151561052d576040517f08c379a000000000000000000000000000000000000000000000000000000000815260040180806020018281038252600d8152602001807f496e76616c6964207469746c650000000000000000000000000000000000000081525060200191505060405180910390fd5b600083511115156105a6576040517f08c379a000000000000000000000000000000000000000000000000000000000815260040180806020018281038252600c8152602001807f496e76616c69642074657874000000000000000000000000000000000000000081525060200191505060405180910390fd5b6000825111151561061f576040517f08c379a000000000000000000000000000000000000000000000000000000000815260040180806020018281038252600c8152602001807f496e76616c69642074616773000000000000000000000000000000000000000081525060200191505060405180910390fd5b6000549050336001600083815260200190815260200160002060006101000a81548173ffffffffffffffffffffffffffffffffffffffff021916908373ffffffffffffffffffffffffffffffffffffffff160217905550600160026000838152602001908152602001600020819055506001600360003373ffffffffffffffffffffffffffffffffffffffff1673ffffffffffffffffffffffffffffffffffffffff168152602001908152602001600020600083815260200190815260200160002081905550816040518082805190602001908083835b60208310151561071b57805182526020820191506020810190506020830392506106f6565b6001836020036101000a0380198251168184511680821785525050505050509050019150506040518091039020813373ffffffffffffffffffffffffffffffffffffffff167fdc220f0be468e8336935034fc4829e5d0e772978345b486fa47d2d09bd32cc11428888604051808481526020018060200180602001838103835285818151815260200191508051906020019080838360005b838110156107ce5780820151818401526020810190506107b3565b50505050905090810190601f1680156107fb5780820380516001836020036101000a031916815260200191505b50838103825284818151815260200191508051906020019080838360005b83811015610834578082015181840152602081019050610819565b50505050905090810190601f1680156108615780820380516001836020036101000a031916815260200191505b509550505050505060405180910390a46001810160008190555050505050565b600081101515156108fa576040517f08c379a000000000000000000000000000000000000000000000000000000000815260040180806020018281038252601d8152602001807f766f746573206973206e6f7420666f7220612076616c696420706f737400000081525060200191505060405180910390fd5b60005481101515610973576040517f08c379a00000000000000000000000000000000000000000000000000000000081526004018080602001828103825260208152602001807f766f74657320697320666f722061206e6f6e206578697374656e7420706f737481525060200191505060405180910390fd5b6002600360003373ffffffffffffffffffffffffffffffffffffffff1673ffffffffffffffffffffffffffffffffffffffff16815260200190815260200160002060008381526020019081526020016000205414151515610a3c576040517f08c379a00000000000000000000000000000000000000000000000000000000081526004018080602001828103825260158152602001807f646f776e766f746520616c726561647920646f6e65000000000000000000000081525060200191505060405180910390fd5b6002600360003373ffffffffffffffffffffffffffffffffffffffff1673ffffffffffffffffffffffffffffffffffffffff1681526020019081526020016000206000838152602001908152602001600020819055506001600260008381526020019081526020016000206000828254039250508190555050565b6000600360008373ffffffffffffffffffffffffffffffffffffffff1673ffffffffffffffffffffffffffffffffffffffff168152602001908152602001600020600084815260200190815260200160002054905092915050565b6000808410151515610b8c576040517f08c379a000000000000000000000000000000000000000000000000000000000815260040180806020018281038252601f8152602001807f636f6d6d656e74206973206e6f7420666f7220612076616c696420706f73740081525060200191505060405180910390fd5b60005484101515610c2b576040517f08c379a00000000000000000000000000000000000000000000000000000000081526004018080602001828103825260228152602001807f636f6d6d656e7420697320666f722061206e6f6e206578697374656e7420706f81526020017f737400000000000000000000000000000000000000000000000000000000000081525060400191505060405180910390fd5b60008351111515610ca4576040517f08c379a00000000000000000000000000000000000000000000000000000000081526004018080602001828103825260188152602001807f636f6d6d656e7420636f6d6d656e7420697320656d707479000000000000000081525060200191505060405180910390fd5b833373ffffffffffffffffffffffffffffffffffffffff167f20384f94314be628c18f96174f16bf474d40b950a08a330bc00796b6127cf0e885856040518080602001838152602001828103825284818151815260200191508051906020019080838360005b83811015610d25578082015181840152602081019050610d0a565b50505050905090810190601f168015610d525780820380516001836020036101000a031916815260200191505b50935050505060405180910390a3600460008581526020019081526020016000205490503360056000868152602001908152602001600020600083815260200190815260200160002060006101000a81548173ffffffffffffffffffffffffffffffffffffffff021916908373ffffffffffffffffffffffffffffffffffffffff1602179055506001600660008681526020019081526020016000206000838152602001908152602001600020819055506001600760003373ffffffffffffffffffffffffffffffffffffffff1673ffffffffffffffffffffffffffffffffffffffff16815260200190815260200160002060008681526020019081526020016000206000838152602001908152602001600020819055506001600460008681526020019081526020016000206000828254019250508190555050505050565b600060066000848152602001908152602001600020600083815260200190815260200160002054905092915050565b6000600760008373ffffffffffffffffffffffffffffffffffffffff1673ffffffffffffffffffffffffffffffffffffffff168152602001908152602001600020600085815260200190815260200160002060008481526020019081526020016000205490509392505050565b60008210151515610fa7576040517f08c379a000000000000000000000000000000000000000000000000000000000815260040180806020018281038252601d8152602001807f766f746573206973206e6f7420666f7220612076616c696420706f737400000081525060200191505060405180910390fd5b60005482101515611020576040517f08c379a00000000000000000000000000000000000000000000000000000000081526004018080602001828103825260208152602001807f766f74657320697320666f722061206e6f6e206578697374656e7420706f737481525060200191505060405180910390fd5b60008110151515611099576040517f08c379a00000000000000000000000000000000000000000000000000000000081526004018080602001828103825260178152602001807f636f6d6d656e74206964206973206e6f742076616c696400000000000000000081525060200191505060405180910390fd5b60046000838152602001908152602001600020548111151515611124576040517f08c379a000000000000000000000000000000000000000000000000000000000815260040180806020018281038252601a8152602001807f636f6d6d656e74206964206973206e6f6e206578697374656e7400000000000081525060200191505060405180910390fd5b6001600760003373ffffffffffffffffffffffffffffffffffffffff1673ffffffffffffffffffffffffffffffffffffffff1681526020019081526020016000206000848152602001908152602001600020600083815260200190815260200160002054141515156111fe576040517f08c379a00000000000000000000000000000000000000000000000000000000081526004018080602001828103825260138152602001807f5570766f746520616c726561647920646f6e650000000000000000000000000081525060200191505060405180910390fd5b6001600760003373ffffffffffffffffffffffffffffffffffffffff1673ffffffffffffffffffffffffffffffffffffffff16815260200190815260200160002060008481526020019081526020016000206000838152602001908152602001600020819055506001600660008481526020019081526020016000206000838152602001908152602001600020600082825401925050819055505050565b60008210151515611315576040517f08c379a000000000000000000000000000000000000000000000000000000000815260040180806020018281038252601d8152602001807f766f746573206973206e6f7420666f7220612076616c696420706f737400000081525060200191505060405180910390fd5b6000548210151561138e576040517f08c379a00000000000000000000000000000000000000000000000000000000081526004018080602001828103825260208152602001807f766f74657320697320666f722061206e6f6e206578697374656e7420706f737481525060200191505060405180910390fd5b60008110151515611407576040517f08c379a00000000000000000000000000000000000000000000000000000000081526004018080602001828103825260178152602001807f636f6d6d656e74206964206973206e6f742076616c696400000000000000000081525060200191505060405180910390fd5b60046000838152602001908152602001600020548111151515611492576040517f08c379a000000000000000000000000000000000000000000000000000000000815260040180806020018281038252601a8152602001807f636f6d6d656e74206964206973206e6f6e206578697374656e7400000000000081525060200191505060405180910390fd5b6002600760003373ffffffffffffffffffffffffffffffffffffffff1673ffffffffffffffffffffffffffffffffffffffff16815260200190815260200160002060008481526020019081526020016000206000838152602001908152602001600020541415151561156c576040517f08c379a00000000000000000000000000000000000000000000000000000000081526004018080602001828103825260138152602001807f5570766f746520616c726561647920646f6e650000000000000000000000000081525060200191505060405180910390fd5b6002600760003373ffffffffffffffffffffffffffffffffffffffff1673ffffffffffffffffffffffffffffffffffffffff16815260200190815260200160002060008481526020019081526020016000206000838152602001908152602001600020819055506001600660008481526020019081526020016000206000838152602001908152602001600020600082825403925050819055505050565b60006001600083815260200190815260200160002060009054906101000a900473ffffffffffffffffffffffffffffffffffffffff169050919050565b600081101515156116c0576040517f08c379a000000000000000000000000000000000000000000000000000000000815260040180806020018281038252601d8152602001807f766f746573206973206e6f7420666f7220612076616c696420706f737400000081525060200191505060405180910390fd5b60005481101515611739576040517f08c379a00000000000000000000000000000000000000000000000000000000081526004018080602001828103825260208152602001807f766f74657320697320666f722061206e6f6e206578697374656e7420706f737481525060200191505060405180910390fd5b6001600360003373ffffffffffffffffffffffffffffffffffffffff1673ffffffffffffffffffffffffffffffffffffffff16815260200190815260200160002060008381526020019081526020016000205414151515611802576040517f08c379a00000000000000000000000000000000000000000000000000000000081526004018080602001828103825260138152602001807f5570766f746520616c726561647920646f6e650000000000000000000000000081525060200191505060405180910390fd5b6001600360003373ffffffffffffffffffffffffffffffffffffffff1673ffffffffffffffffffffffffffffffffffffffff1681526020019081526020016000206000838152602001908152602001600020819055506001600260008381526020019081526020016000206000828254019250508190555050565b6000600260008381526020019081526020016000205490509190505600a165627a7a72305820699839cfcc095fcc667507711e55969f959049b09435b4f18c2cb96e7eaa5ca60029",
  "source": "pragma solidity >=0.4.2;\r\n\r\ncontract Treddit {\r\n    \r\n    //post related variables\r\n    uint postNumber; // keeps track of posts so that every one is unique\r\n    mapping (uint => address) postOwners; //Keeps track of who owns a specific post\r\n    mapping (uint => uint) votes; // keeps track of a posts vote counter\r\n    mapping (address => mapping(uint => uint)) voters; //keeps track of a users voting history, helps to prevent vote spamming from a single account\r\n    \r\n    //comment related variables\r\n    mapping (uint => uint) commentCounter; // keeps track of posts so that every one is unique\r\n    mapping (uint => mapping(uint => address)) commentOwner; //Keeps track of who owns a specific post\r\n    mapping (uint => mapping(uint => uint)) commentVotes; // keeps track of a posts vote counter\r\n    mapping (address => mapping(uint => mapping(uint => uint))) commentVoters; //keeps track of a users voting history, helps to prevent vote spamming from a single account\r\n    \r\n    constructor () public {\r\n        postNumber = 0;\r\n    }\r\n    \r\n    //Invoked when the post has been created, so that the dApp can access the content\r\n    event PostContent (\r\n        address indexed author,\r\n        uint indexed id,\r\n        bytes indexed tags,\r\n        uint postTimestamp, //used to generate private post unique key\r\n        bytes title,\r\n        bytes text\r\n    );\r\n    \r\n    //create a new post, done by storing data in the logs. data can be in any form as long as it is byte data. This means data can be compressed\r\n    function CreatePost(bytes title, bytes text, bytes tags) public {\r\n        \r\n        //check that the data is correct\r\n        require(title.length > 0, \"Invalid title\");\r\n        require(text.length > 0, \"Invalid text\");\r\n        require(tags.length > 0, \"Invalid tags\");\r\n        \r\n        uint postId = postNumber;\r\n        //init the mapping and set the owner as the sender\r\n        postOwners[postId] = msg.sender;\r\n        \r\n        //init votes so that the owner has upvoted by default.\r\n        votes[postId] = 1;\r\n        voters[msg.sender][postId] = 1;\r\n        \r\n        //posts are stored in logs, it allows to reduce post invocation cost\r\n        emit PostContent(msg.sender, postId, tags, now, title, text);\r\n        \r\n        postNumber = postId + 1;\r\n    }\r\n    \r\n    //get the owner of a post\r\n    function getOwner(uint postId) public view returns (address) {\r\n        return postOwners[postId];\r\n    }\r\n\r\n    //stores a log comment on the blockchain when commented\r\n    event CommentCreated (\r\n        address indexed commenter,\r\n        uint indexed postId,\r\n        bytes comment,\r\n        uint parentComment\r\n    );\r\n    \r\n    function PostComment(uint postId, bytes text, uint parentComment) public {\r\n        require(postId >= 0, \"comment is not for a valid post\");\r\n        require(postId < postNumber, \"comment is for a non existent post\");\r\n        require(text.length > 0, \"comment comment is empty\");\r\n        emit CommentCreated(msg.sender, postId, text, parentComment);\r\n        \r\n        //update comment related variables\r\n        uint commentId = commentCounter[postId];\r\n        commentOwner[postId][commentId] = msg.sender;\r\n        \r\n        //deal with upvote data\r\n        commentVotes[postId][commentId] = 1;\r\n        commentVoters[msg.sender][postId][commentId] = 1;\r\n        \r\n        //increment counter when done\r\n        commentCounter[postId] += 1;\r\n    }\r\n    \r\n    //upvote a post \r\n    function UpvotePost(uint postId) public {\r\n        require(postId >= 0, \"votes is not for a valid post\");\r\n        require(postId < postNumber, \"votes is for a non existent post\");\r\n        \r\n        require(voters[msg.sender][postId] != 1, \"Upvote already done\");\r\n        voters[msg.sender][postId] = 1;\r\n        votes[postId] += 1;\r\n    }\r\n    \r\n    //downvote a post \r\n    function DownvotePost(uint postId) public {\r\n        require(postId >= 0, \"votes is not for a valid post\");\r\n        require(postId < postNumber, \"votes is for a non existent post\");\r\n        \r\n        require(voters[msg.sender][postId] != 2, \"downvote already done\");\r\n        voters[msg.sender][postId] = 2;\r\n        votes[postId] -= 1;\r\n    }\r\n    \r\n    //get the vote data\r\n    function getVotes(uint postId) public view returns (uint) {\r\n        return votes[postId];\r\n    }\r\n    \r\n    //get the voter data\r\n    function getVoterData(uint postId, address voter) public view returns (uint) {\r\n        return voters[voter][postId];\r\n    }\r\n    \r\n    //upvote a post \r\n    function UpvoteComment(uint postId, uint commendId) public {\r\n        require(postId >= 0, \"votes is not for a valid post\");\r\n        require(postId < postNumber, \"votes is for a non existent post\");\r\n        \r\n        require(commendId >= 0, \"comment id is not valid\");\r\n        require(commendId <= commentCounter[postId], \"comment id is non existent\");\r\n        require(commentVoters[msg.sender][postId][commendId] != 1, \"Upvote already done\");\r\n        \r\n        commentVoters[msg.sender][postId][commendId] = 1;\r\n        commentVotes[postId][commendId] += 1;\r\n    }\r\n    \r\n    //downvote a post \r\n    function DownvoteComment(uint postId, uint commendId) public {\r\n        require(postId >= 0, \"votes is not for a valid post\");\r\n        require(postId < postNumber, \"votes is for a non existent post\");\r\n        \r\n        require(commendId >= 0, \"comment id is not valid\");\r\n        require(commendId <= commentCounter[postId], \"comment id is non existent\");\r\n        require(commentVoters[msg.sender][postId][commendId] != 2, \"Upvote already done\");\r\n        \r\n        commentVoters[msg.sender][postId][commendId] = 2;\r\n        commentVotes[postId][commendId] -= 1;\r\n    }\r\n    \r\n    //get the comment vote data\r\n    function getCommentVotes(uint postId, uint commendId) public view returns (uint) {\r\n        return commentVotes[postId][commendId];\r\n    }\r\n    \r\n    //get the comment voter data\r\n    function getCommentVoterData(uint postId, uint commendId, address commenter) public view returns (uint) {\r\n        return commentVoters[commenter][postId][commendId];\r\n    } \r\n\r\n}",
  "sourcePath": "C:\\Users\\Khera\\Documents\\GitHub\\TronDappSteedium\\coin\\contracts\\Treddit.sol",
  "compiler": {
    "name": "solc",
    "version": "0.4.24-develop.2018.8.28+commit.3ba0cdec.mod.Emscripten.clang"
  },
  "schemaVersion": "2.0.1",
  "updatedAt": "2018-12-18T21:15:20.295Z"
}